{
  "transactions": [
    {
      "hash": "0xf78ca1709284a95b5f7263d1839cc2dd38f5bb5ea02ee22bf69e5c09f731f461",
      "transactionType": "CALL",
      "contractName": null,
      "contractAddress": "0x779877a7b0d9e8603169ddbd7836e478b4624789",
      "function": "transferAndCall(address,uint256,bytes)",
      "arguments": [
        "0x9DdfaCa8183c41ad55329BdeeD9F6A8d53168B1B",
        "3000000000000000000",
        "0x08f292230f54977de57887472015fc508e224027a7f64fdb6de5ee1fc6843467"
      ],
      "transaction": {
        "from": "0xb3726d011cb83eaffb19712071de2dcf79b6710d",
        "to": "0x779877a7b0d9e8603169ddbd7836e478b4624789",
        "gas": "0x1c1ff",
        "value": "0x0",
        "input": "0x4000aea00000000000000000000000009ddfaca8183c41ad55329bdeed9f6a8d53168b1b00000000000000000000000000000000000000000000000029a2241af62c00000000000000000000000000000000000000000000000000000000000000000060000000000000000000000000000000000000000000000000000000000000002008f292230f54977de57887472015fc508e224027a7f64fdb6de5ee1fc6843467",
        "nonce": "0xd8",
        "chainId": "0xaa36a7"
      },
      "additionalContracts": [],
      "isFixedGasLimit": false
    }
  ],
  "receipts": [
    {
      "status": "0x1",
      "cumulativeGasUsed": "0x15722bd",
      "logs": [
        {
          "address": "0x779877a7b0d9e8603169ddbd7836e478b4624789",
          "topics": [
            "0xddf252ad1be2c89b69c2b068fc378daa952ba7f163c4a11628f55a4df523b3ef",
            "0x000000000000000000000000b3726d011cb83eaffb19712071de2dcf79b6710d",
            "0x0000000000000000000000009ddfaca8183c41ad55329bdeed9f6a8d53168b1b"
          ],
          "data": "0x00000000000000000000000000000000000000000000000029a2241af62c0000",
          "blockHash": "0xdc03e54a512dce04e4e8be08779954ee2f61b4451132d5c1ca948a6eb70836a3",
          "blockNumber": "0x65199f",
          "transactionHash": "0xf78ca1709284a95b5f7263d1839cc2dd38f5bb5ea02ee22bf69e5c09f731f461",
          "transactionIndex": "0x71",
          "logIndex": "0x107",
          "removed": false
        },
        {
          "address": "0x779877a7b0d9e8603169ddbd7836e478b4624789",
          "topics": [
            "0xe19260aff97b920c7df27010903aeb9c8d2be5d310a2c67824cf3f15396e4c16",
            "0x000000000000000000000000b3726d011cb83eaffb19712071de2dcf79b6710d",
            "0x0000000000000000000000009ddfaca8183c41ad55329bdeed9f6a8d53168b1b"
          ],
          "data": "0x00000000000000000000000000000000000000000000000029a2241af62c00000000000000000000000000000000000000000000000000000000000000000040000000000000000000000000000000000000000000000000000000000000002008f292230f54977de57887472015fc508e224027a7f64fdb6de5ee1fc6843467",
          "blockHash": "0xdc03e54a512dce04e4e8be08779954ee2f61b4451132d5c1ca948a6eb70836a3",
          "blockNumber": "0x65199f",
          "transactionHash": "0xf78ca1709284a95b5f7263d1839cc2dd38f5bb5ea02ee22bf69e5c09f731f461",
          "transactionIndex": "0x71",
          "logIndex": "0x108",
          "removed": false
        },
        {
          "address": "0x9ddfaca8183c41ad55329bdeed9f6a8d53168b1b",
          "topics": [
            "0x1ced9348ff549fceab2ac57cd3a9de38edaaab274b725ee82c23e8fc8c4eec7a",
            "0x08f292230f54977de57887472015fc508e224027a7f64fdb6de5ee1fc6843467"
          ],
          "data": "0x000000000000000000000000000000000000000000000000000000000000000000000000000000000000000000000000000000000000000029a2241af62c0000",
          "blockHash": "0xdc03e54a512dce04e4e8be08779954ee2f61b4451132d5c1ca948a6eb70836a3",
          "blockNumber": "0x65199f",
          "transactionHash": "0xf78ca1709284a95b5f7263d1839cc2dd38f5bb5ea02ee22bf69e5c09f731f461",
          "transactionIndex": "0x71",
          "logIndex": "0x109",
          "removed": false
        }
      ],
      "logsBloom": "0x00000004000000000000000000000000000000000020000002000000020000000000000000000000000000000000000000000000000000000000000000000000000000000000000000000008000000000000000000000000000020000020000008000000000000000000000000000000000000000000018000000010000040000000004000000000000000010000800000000020000000000000000000000000000000000000000000080000010000000000000000000000000004000000000000000002000000000000000000000000000000000000000100000000000000000810000000000000800000000000000000000000000000000000000000000000",
      "type": "0x2",
      "transactionHash": "0xf78ca1709284a95b5f7263d1839cc2dd38f5bb5ea02ee22bf69e5c09f731f461",
      "transactionIndex": "0x71",
      "blockHash": "0xdc03e54a512dce04e4e8be08779954ee2f61b4451132d5c1ca948a6eb70836a3",
      "blockNumber": "0x65199f",
      "gasUsed": "0x133b1",
      "effectiveGasPrice": "0x1c5e1a727",
      "from": "0xb3726d011cb83eaffb19712071de2dcf79b6710d",
      "to": "0x779877a7b0d9e8603169ddbd7836e478b4624789",
      "contractAddress": null
    }
  ],
  "libraries": [],
  "pending": [],
  "returns": {},
  "timestamp": 1725373685,
  "chain": 11155111,
  "commit": "77f8efe"
}